{
  "contractName": "Switch",
  "abi": [
    {
      "constant": false,
      "inputs": [],
      "name": "setPrimaryAddress",
      "outputs": [],
      "payable": false,
      "stateMutability": "nonpayable",
      "type": "function"
    },
    {
      "constant": false,
      "inputs": [
        {
          "internalType": "address",
          "name": "_recovery",
          "type": "address"
        }
      ],
      "name": "setRecoveryAddress",
      "outputs": [],
      "payable": false,
      "stateMutability": "nonpayable",
      "type": "function"
    },
    {
      "constant": false,
      "inputs": [],
      "name": "depositEth",
      "outputs": [],
      "payable": true,
      "stateMutability": "payable",
      "type": "function"
    },
    {
      "constant": false,
      "inputs": [],
      "name": "checkIn",
      "outputs": [],
      "payable": false,
      "stateMutability": "nonpayable",
      "type": "function"
    },
    {
      "constant": false,
      "inputs": [],
      "name": "transferFunds",
      "outputs": [],
      "payable": false,
      "stateMutability": "nonpayable",
      "type": "function"
    }
  ],
  "bytecode": "0x6080604052600060035534801561001557600080fd5b506105d3806100256000396000f3fe60806040526004361061004a5760003560e01c8063183ff0851461004f5780633c68eb8114610066578063439370b11461007d57806349efe5ae1461008757806385c6ccc7146100d8575b600080fd5b34801561005b57600080fd5b506100646100ef565b005b34801561007257600080fd5b5061007b6101ba565b005b6100856102ff565b005b34801561009357600080fd5b506100d6600480360360208110156100aa57600080fd5b81019080803573ffffffffffffffffffffffffffffffffffffffff16906020019092919050505061030c565b005b3480156100e457600080fd5b506100ed610458565b005b6000809054906101000a900473ffffffffffffffffffffffffffffffffffffffff1673ffffffffffffffffffffffffffffffffffffffff163373ffffffffffffffffffffffffffffffffffffffff16146101b1576040517f08c379a000000000000000000000000000000000000000000000000000000000815260040180806020018281038252601f8152602001807f506c656173652075736520796f7572207072696d61727920616464726573730081525060200191505060405180910390fd5b43600281905550565b600160009054906101000a900473ffffffffffffffffffffffffffffffffffffffff1673ffffffffffffffffffffffffffffffffffffffff163373ffffffffffffffffffffffffffffffffffffffff1614801561021c5750600a600254430310155b61028e576040517f08c379a00000000000000000000000000000000000000000000000000000000081526004018080602001828103825260208152602001807f506c656173652075736520796f7572207265636f76657279206164647265737381525060200191505060405180910390fd5b6000600160009054906101000a900473ffffffffffffffffffffffffffffffffffffffff1690508073ffffffffffffffffffffffffffffffffffffffff166108fc479081150290604051600060405180830381858888f193505050501580156102fb573d6000803e3d6000fd5b5050565b3460035401600381905550565b600073ffffffffffffffffffffffffffffffffffffffff166000809054906101000a900473ffffffffffffffffffffffffffffffffffffffff1673ffffffffffffffffffffffffffffffffffffffff16141580156103b85750600073ffffffffffffffffffffffffffffffffffffffff16600160009054906101000a900473ffffffffffffffffffffffffffffffffffffffff1673ffffffffffffffffffffffffffffffffffffffff16145b61040d576040517f08c379a000000000000000000000000000000000000000000000000000000000815260040180806020018281038252604181526020018061055e6041913960600191505060405180910390fd5b80600160006101000a81548173ffffffffffffffffffffffffffffffffffffffff021916908373ffffffffffffffffffffffffffffffffffffffff1602179055504360028190555050565b600073ffffffffffffffffffffffffffffffffffffffff166000809054906101000a900473ffffffffffffffffffffffffffffffffffffffff1673ffffffffffffffffffffffffffffffffffffffff161461051b576040517f08c379a000000000000000000000000000000000000000000000000000000000815260040180806020018281038252601b8152602001807f5072696d617279206164647265737320616c726561647920736574000000000081525060200191505060405180910390fd5b336000806101000a81548173ffffffffffffffffffffffffffffffffffffffff021916908373ffffffffffffffffffffffffffffffffffffffff16021790555056fe506c656173652070726f76696465207072696d61727920616464726573732066697273742f5265636f76657279206164647265737320616c726561647920736574a265627a7a7231582015c17cb17140de02f6d43ccccedd06ba21c0bce8c5031f2caae6a20fddab15b464736f6c63430005100032",
  "source": "pragma solidity ^0.5.0;\n\ncontract Switch{\n\n    address primary;\n    address recovery;\n    uint lastCheckedBlock;\n    uint deposits = 0;\n    function setPrimaryAddress() external{\n        require(primary == address(0x0),\"Primary address already set\");\n        primary = msg.sender;\n    }\n    \n    function setRecoveryAddress(address _recovery) external{\n        require(primary != address(0x0) && recovery == address(0x0),\"Please provide primary address first/Recovery address already set\");\n        recovery = _recovery;\n        lastCheckedBlock = block.number;\n    }\n    \n    function depositEth() external payable {\n        deposits = deposits + msg.value;\n    }   \n\n    function checkIn() external {\n        require(msg.sender == primary,\"Please use your primary address\");\n        lastCheckedBlock = block.number;\n    }    \n\n    function transferFunds() external{\n        require(msg.sender == recovery && ((block.number - lastCheckedBlock)>=10),\"Please use your recovery address\");\n        address payable _recovery = address(uint160(recovery));\n        _recovery.transfer(address(this).balance);\n    }\n}",
  "sourcePath": "/home/puter/Projects/Dead-man's switch/contracts/Switch.sol",
  "compiler": {
    "name": "solc",
    "version": "0.5.16+commit.9c3226ce.Emscripten.clang"
  },
  "schemaVersion": "3.2.0",
  "updatedAt": "2020-06-17T17:46:16.527Z",
  "devdoc": {
    "methods": {}
  },
  "userdoc": {
    "methods": {}
  }
}